:100000000C9456000C946B000C946B000C946B00D9
:100010000C946B000C946B000C946B000C946B00B4
:100020000C946B000C946B000C946B000C946B00A4
:100030000C946B000C946B000C946B000C946B0094
:100040000C946B000C946B000C946B000C946B0084
:100050000C946B000C946B000C946B000C946B0074
:100060000C946B000C946B000C946B000C946B0064
:100070000C946B000C946B000C946B000C946B0054
:100080000C946B000C946B000C946B000C946B0044
:100090000C946B000C946B000C946B000C946B0034
:1000A0000C946B000C946B000C946B0011241FBE1D
:1000B000CFEFDAE0DEBFCDBF11E0A0E0B1E0EAE1D2
:1000C000F2E002C005900D92A231B107D9F70E946B
:1000D000B4000C940B010C9400009093CD0080931D
:1000E000CC0086E08093CA0088E18093C90008951F
:1000F0002091C80020FF03C028E030E002C020E1CA
:1001000030E0DC010E94FC009B01AC0160E074E285
:1001100084EF90E00E94DA00C90101970895909160
:10012000C80095FFFCCF8093CE0008950F931F93D6
:10013000CF93DF93EC018C01FE0101900020E9F7E1
:100140003197EC1BFD0BC8018C1B9D0B8E179F0775
:1001500030F4F80181918F010E948F00EDCFDF9183
:10016000CF911F910F91089580EC92E10E94780049
:100170000E946D0081E080BBC0E8C1BB80E091E0DF
:100180000E9496008EE091E00E9496002FEF84E39B
:100190009CE0215080409040E1F700C0000011BA7F
:1001A0002FEF84E39CE0215080409040E1F700C0B5
:1001B0000000E3CFA1E21A2EAA1BBB1BFD010DC05C
:1001C000AA1FBB1FEE1FFF1FA217B307E407F50707
:1001D00020F0A21BB30BE40BF50B661F771F881FE3
:1001E000991F1A9469F760957095809590959B0179
:1001F000AC01BD01CF010895A29FB001B39FC00122
:10020000A39F700D811D1124911DB29F700D811D42
:0A0210001124911D0895F894FFCF0A
:10021A0068656C6C6F206669656E20633A000D0A2A
:02022A000000D2
:00000001FF
