:100000000C9456000C946B000C946B000C946B00D9
:100010000C946B000C946B000C946B000C946B00B4
:100020000C946B000C946B000C946B000C946B00A4
:100030000C946B000C946B000C946B000C946B0094
:100040000C946B000C946B000C946B000C946B0084
:100050000C946B000C946B000C946B000C946B0074
:100060000C946B000C946B000C946B000C946B0064
:100070000C946B000C946B000C946B000C946B0054
:100080000C946B000C946B000C946B000C946B0044
:100090000C946B000C946B000C946B000C946B0034
:1000A0000C946B000C946B000C946B0011241FBE1D
:1000B000CFEFDAE0DEBFCDBF11E0A0E0B1E0E0E8D5
:1000C000F2E002C005900D92A031B107D9F70E946D
:1000D000C2000C943E010C9400009093CD008093DC
:1000E000CC0086E08093CA0088E18093C90008951F
:1000F0002091C80020FF03C028E030E002C020E1CA
:1001000030E0DC010E942F019B01AC0160E074E251
:1001100084EF90E00E940D01C9010197089580913C
:10012000CE0008959091C80095FFFCCF8093CE003B
:1001300008950F931F93CF93DF93EC018C01FE0181
:1001400001900020E9F73197EC1BFD0BC8018C1BD7
:100150009D0B8E179F0730F4F80181918F010E944B
:100160009200EDCFDF91CF911F910F9108952091D3
:10017000C80027FFFCCF2091CE00FC01208308950A
:1001800090E00895CF93DF93CDB7DEB7C95CD10976
:100190000FB6F894DEBF0FBECDBF80EC92E10E9497
:1001A00078000E946D0010E0CE0187539F4F0E949F
:1001B000B700C753DF4F8881C95CD040E1E0F0E071
:1001C000EC0FFD1FE10FF11D8083CE0187539F4F80
:1001D0000E949900C753DF4F8881C95CD0408823B3
:1001E00039F081E0810F173C10F4182FDDCF182F64
:1001F000E1E0F0E0EC0FFD1FE10FF11D108280E067
:1002000091E00E949900CE0101960E9499008DE034
:1002100091E00E94990080E0E8CFA1E21A2EAA1B8B
:10022000BB1BFD010DC0AA1FBB1FEE1FFF1FA217A6
:10023000B307E407F50720F0A21BB30BE40BF50BA3
:10024000661F771F881F991F1A9469F7609570952C
:10025000809590959B01AC01BD01CF010895A29FAF
:10026000B001B39FC001A39F700D811D1124911D8A
:10027000B29F700D811D1124911D0895F894FFCF38
:100280003E2072656365697665643A20000D0A0058
:00000001FF
